:020000040800F2
:1000000068080020910200082D3B0008B133000869
:10001000293B0008ED1400084D3F000800000000D7
:10002000000000000000000000000000BD3E0008CD
:100030009915000800000000313B0008BF3E000891
:10004000AB020008AB020008AB020008AB020008DC
:10005000AB020008AB020008AB020008AB020008CC
:10006000AB020008AB020008AB020008AB020008BC
:10007000AB020008AB020008AB020008AB020008AC
:10008000AB02000800000000AB020008AB02000851
:10009000AB020008AB020008AB020008AB0200088C
:1000A000AB020008AB020008AB020008AB0200087C
:1000B000AB020008AB020008AB020008AB0200086C
:1000C000AB020008AB020008AB020008AB0200085C
:1000D000AB020008AB020008AB020008AB0200084C
:1000E000AB020008AB020008AB020008AB0200083C
:1000F000AB020008AB020008AB02000800000000E1
:1001000000000000AB02000800000000AB02000885
:10011000AB02000800000000AB020008AB020008C0
:10012000AB020008AB020008AB020008AB020008FB
:10013000AB0200080000000000000000AB02000855
:10014000AB020008AB020008000000000000000045
:10015000000000000000000000000000000000009F
:10016000000000000000000000000000AB020008DA
:10017000AB020008000000000000000000000000CA
:1001800000000000AB0200080000000000000000BA
:10019000000000000000000000000000000000005F
:1001A0000000000000000000AB020008AB020008E5
:1001B000AB020008AB020008AB0200080000000020
:1001C00000000000AB02000800000000000000007A
:1001D000AB020008AB02000800F002F800F049F89A
:1001E0000AA090E8000C82448344AAF10107DA4592
:1001F00001D100F03EF8AFF2090EBAE80F0013F09B
:10020000010F18BFFB1A43F00103184730560000D6
:1002100050560000103A24BF78C878C1FAD8520767
:1002200024BF30C830C144BF04680C607047000070
:100230000023002400250026103A28BF78C1FBD8EF
:10024000520728BF30C148BF0B607047662904F0D1
:10025000B481002070471FB504F0AAF900F02AFB12
:1002600004000020002103F023FFE0601FBD10B553
:1002700010BD00F01FFC1146FFF7EDFF03F0EEFE8E
:1002800000F03DFC03B4FFF7F2FF03BC00F080FC7C
:100290000948804709480047FEE7FEE7FEE7FEE71A
:1002A000FEE7FEE7FEE7FEE7FEE7FEE70448054956
:1002B000054A064B70470000313F0008D90100088D
:1002C00068020020680800206804002068040020FC
:1002D0000FB41CB5074B06AA7B44694600900598ED
:1002E00000F0CFFA0020694600F0DEFA1CBC5DF891
:1002F00014FB0000CD0500002DE9F0474FF0000A87
:1003000089460446C0F820A02046E16888470028B6
:1003100076D0252806D0D4E901219047206A401CD8
:100320002062F1E7E168204600258847C4F81CA058
:1003300006460027C4F818A02A2E09D0304603F03C
:100340003BFE38B304EB8708303EC8F8186019E06C
:1003500059F8041B204604EB87029161E168884745
:10036000012F064618D1E069002820DA25F0200583
:100370001DE0D8F8180000EB800006EB4000303894
:10038000C8F818002046E1688847064603F014FEC6
:100390000028EED1012F0AD02E2E08D12046E16888
:1003A00088477F1C0646022F45F02005C4DBA06964
:1003B000002803DA404245F00105A061E80701D0BA
:1003C00025F01005B6B1A6F14100192802D8203653
:1003D00045F400654A463146204625604D46FFF704
:1003E00035FF58B1012806D0ED1D25F0070000F1BA
:1003F000080989E704E005F1040985E730468AE742
:10040000206ABDE8F0874FF0000200B5134694461D
:100410009646203922BFA0E80C50A0E80C50B1F15C
:100420002001BFF4F7AF090728BFA0E80C5048BF70
:100430000CC05DF804EB890028BF40F8042B08BF0E
:10044000704748BF20F8022B11F0804F18BF00F80A
:10045000012B704770477047704770472DE9FF4F79
:100460000C461E464FF0FF378BB0D2E90001DDF895
:1004700060800A908A46C1F30A5505B93D460021BD
:1004800008464FF00000BAF1000F00F4400005DA12
:1004900000EB80004FF4400101EA50004FEA905910
:1004A000B9F1010F00DDB9460A9850EA4A000ED0B2
:1004B00044F61050A5F2FF3545432F14B8F1000F54
:1004C0001ED07542291E1EDDC9F100021CE0B8F1E4
:1004D000010F4FF0000001D0302103E0F24305E0AE
:1004E0002154401CB042FBDB304600220021215445
:1004F0000B99C1F80880C1E900200FB0BDE8F08F6A
:10050000BD1B6D1CDEE74A4600DA694206A800F012
:100510005BFA06AB93E8070003AB83E8070050469D
:100520000A9900F03CFB8DE80700A0F500501F3849
:1005300000900398002D0ADD42F21F014A4608444C
:10054000002303A90390684600F0A5FD09E0A0F58B
:1005500000504A461F38002303A90390684600F064
:10056000AFFD8DE807000004000C03D04FF0FF3012
:10057000410800E01046B8F1000F03D000220092BD
:1005800015461EE0751E05D400F098F9303262550C
:100590006D1EF9D5B3460122084302D000227F1C0C
:1005A00004E02078302801D100227F1E002A09971C
:1005B00084D01DE0112D07DA00F080F93032625549
:1005C0006D1C50EA0102F5D1084302D00098C8B171
:1005D0000EE00021681E05E0235C625C6354225437
:1005E000401E491C8142F7DBAB46A81B401E099008
:1005F000002004F80B000B98099AC0F80880C0E9A5
:10060000002B7AE711264FF0000857E72DE9F04F4D
:1006100088460446D21D22F0070191B0D1E90001BD
:10062000CDE90A0103F094FC02460B98C00F01D0FB
:100630002D2007E02068810701D52B2002E0202132
:1006400001EAC000032A099001D0072A05DB03460E
:100650004146204600F078F90BE12078800601D56C
:10066000E06900E00620B8F1650F814606D0B8F1D8
:10067000660F18D0B8F1670F70D131E00020B9F1E2
:10068000110F009001DB112301E009F101030AAA17
:1006900001A90CA8FFF7E2FEDDE90C70002609F1C4
:1006A0000105834647E001204B4600904FF000478C
:1006B0000AAA01A90CA8FFF7D1FEDDE90DB00C993B
:1006C0005D46002610B909F101000D18B9EB0500CF
:1006D00003D4C0F1FF3609F10105A5EB09002BE0B9
:1006E000B9F1010F01DA4FF001090020B9F1110F42
:1006F0000090484601DD112300E003460AAA01A943
:100700000CA8FFF7ABFEDDE90C704D4600268346D2
:10071000207800070AD4AB4500DA5D4601A8012D18
:1007200004DD411911F8011C302907D04F4502DAC8
:1007300017F1040F04DA012082460FE06D1EEEE788
:10074000002F02DCED1B3E4403E0781CA84200DDD4
:100750007D1CB81B00F1010A4FF00047207800070C
:1007600003D4AA4501DB4FF0FF3A0021B7F1004F57
:100770000DF143088DF8431024D002202B23002FC5
:1007800001DA7F422D230A21021EA0F1010000DCC4
:100790005FB197FBF1FC97FBF1F201FB1C7C174664
:1007A0000CF1300C08F801CDEEE7A8F10100037060
:1007B0002188090501D5452100E06521A0F1010846
:1007C00000F8011C09980FA9A1EB0807FF1D00B153
:1007D0000120411901EBEA70A1693844081A401E52
:1007E000A0612078C00602D42046AFF300800998AB
:1007F00028B1D4E901219047206A401C206220786A
:10080000C00622D52046AFF300801EE0002E04DB98
:10081000B34502DD01A8805D00E03020D4E901216C
:100820009047206A401C2062761CAAF101005FEA12
:10083000000A0AD100F03EF8C0680168405CD4E9C3
:1008400001219047206A401C2062281EA5F1010565
:10085000DCDC07E0D4E9012118F8010B9047206A9D
:10086000401C2062381EA7F10107F3DC2046AFF3DD
:100870000080032011B041E601694A1C026108783A
:10088000704700B58FB0CDE90131002105910549D0
:100890007944CDE9031011466846FFF72DFD0FB0EE
:1008A00000BD0000E5FFFFFF0A6802F8010B0A60C7
:1008B00070470000004870472402002030B5B0F1B6
:1008C0000A024FEA900E71F100034EEA817EB0EB0E
:1008D0000E0061EB91014FEA101E4EEA017E10EB13
:1008E0000E0041EB11114FEA102E4EEA016E10EB93
:1008F0000E0041EB11214FEA104E4EEA014E10EB73
:100900000E0041EB1141401841F100014FEAD000C7
:1009100040EA41704FEAD10110EB80054FEA8104B3
:1009200044EA907444EB01046D1944EB0404521B37
:10093000A3414FF0000348BF0A3200D530BD401C30
:1009400041F1000130BD00002DE9F0411F46044691
:1009500003260168072A01F4006004DB08B116A52C
:1009600005E016A503E008B115A500E015A521F0E6
:1009700010002060A069C01EA0610FB1401EA061E0
:100980002046AFF300804FB1D4E9012138469047AB
:10099000206A401C2062C01C206206E0206AFAE740
:1009A000D4E9012115F8010B9047761EF8D22046B4
:1009B000AFF30080BDE8F0814E414E006E616E00E5
:1009C000494E4600696E66002DE9F047814616469D
:1009D0008AB0354878440DC88DE80D003248784417
:1009E000801C03AC0DC884E80D0041F69B30084420
:1009F000372190FBF1F290FBF1F5A5F1800501FBA9
:100A000012041B3C02D56442012000E00020DFF804
:100A100098A080460027FA44AAF1BE0A0EE0E0073B
:100A20000AD03246684607EB470101230AEB8101F1
:100A300000F046FB8DE8070064107F1C002CEED10F
:100A4000194F7F44AE3F19E0E80715D007EB0410BB
:100A50000DF1180A90E80E008AE80E00C068F04216
:100A600001D1981908903246012306A903A800F085
:100A700027FB03AB83E807006D10641C002DE3D156
:100A80004FF0010332466946B8F1000F03A802D0C7
:100A900000F001FB01E000F013FBC9E90001C9F817
:100AA00008200AB0BDE8F0874C4E000000487047AF
:100AB000040200207546FFF7F9FFAE4605006946BF
:100AC000534620F00700854618B020B5FFF7EEFB2F
:100AD000BDE820404FF000064FF000074FF000083F
:100AE0004FF0000B21F00701AC46ACE8C009ACE8C0
:100AF000C009ACE8C009ACE8C0098D46704710B524
:100B00000446AFF300802046BDE81040FFF7BABBB3
:100B10004FF0013C50F8042B51F8043B9A4221D18C
:100B2000A2EB0C03934313EACC1317D150F8042B18
:100B300051F8043B9A4215D1A2EB0C03934313EAFC
:100B4000CC130BD150F8042B51F8043B9A4209D135
:100B5000A2EB0C03934313EACC13DBD04FF000005D
:100B6000704700BFD01A01BAB1FA81F101F0180143
:100B700022FA01F0CB40C1F12001DBB2C0B2C01AB1
:100B80002CFA01F3D11A914311EAC311E6D170474F
:100B900001491820ABBEFEE72600020070475FEA5D
:100BA000400C08BF91F0000F4FEA8C234FEAC1229E
:100BB00043EA51514FEA1C5018BF00F5F0404FEA8C
:100BC000300018BF41F000415FEA6C5C00F0298002
:100BD000BCF1FF3F08BF40F080407047130C06BFD8
:100BE00012044FF0100C4FF0000C130E04BF120251
:100BF0000CF1080C130F04BF12010CF1040C930F3D
:100C000004BF92000CF1020CD30F04BF52000CF190
:100C1000010C11464FF00002A0F11F00A0EB0C00E8
:100C2000704711F0004F08BF704731F000413FF4AA
:100C3000D5AF0B0C06BF09044FF0100C4FF0000CA1
:100C40000B0E04BF09020CF1080C0B0F04BF0901C5
:100C50000CF1040C8B0F04BF89000CF1020CCB0FBC
:100C600004BF49000CF1010CCCF12003A0EB0C00F7
:100C700022FA03F302FA0CF241EA030100F1010047
:100C8000704720F07F4C80EA030023F07F47ACEBF5
:100C9000070303F57C5300F0004003F1FF032DE947
:100CA00080494FEA154B09B44FEA144325EA0B4E2D
:100CB00024EA03480FF2042606EB132749083E787E
:100CC0005FEA320203FB0667C7F5000707FB06F67B
:100CD0004FEA54374FEAD64606F1020607FB066C88
:100CE000CCF1005C4FEA1C472CEA074C07FB06F4EA
:100CF0000CFB06F504EB15464FEA961634BF0020B0
:100D00004FF000404FEAD13706FB07FC4FEA1C4C7E
:100D10000CFB0BF7D21B03FB0CF761EB07010CFB81
:100D20000EF7B0EB074072EB17420CFB08F734BF2D
:100D3000A2EB0742B2EB074261EB17414FEA0C44CA
:100D40004FEA910706FB07FC4FEA1C4C0CFB0BF724
:100D5000B0EBC74072EB573203FB0CF734BFA2EB8A
:100D6000C742B2EBC74261EB57310CFB0EF7B0EB59
:100D7000C70072EB57720CFB08F734BFA2EBC70237
:100D8000B2EBC70261EB5771039F4FEA816141EA01
:100D9000921104EBCC044FEAD1374FEA826206FB92
:100DA00007FC42EA90124FEA80604FEA1C4C0CFBB1
:100DB0000BF7D21B03FB0CF761EB07010CFB0EF7E3
:100DC000B0EB074072EB17420CFB08F734BFA2EB05
:100DD0000742B2EB074261EB17414FEA8C554FEAED
:100DE000910704EB9C2406FB07FC4FEA1C4C0CFB10
:100DF0000BF7B0EBC74072EB573203FB0CF734BF75
:100E0000A2EBC742B2EBC74261EB57310CFB0EF7C6
:100E1000B0EBC70072EB57720CFB08F734BFA2EBC4
:100E2000C702B2EBC70261EB577115EB4C254FEAD5
:100E3000816141EA92114FEA82624FEAD13742EA78
:100E4000901206FB07FC44F100044FEA80604FEA71
:100E50001C4C0CFB0BF7D21B03FB0CF761EB0701DF
:100E60000CFB0EF7B0EB074072EB17420CFB08F7D8
:100E700034BFA2EB0742B2EB074261EB174115EB1F
:100E80001C154FEA813141EA92414FEA823242EA2F
:100E900090424FEA80304FEA0C7644F1000448EA71
:100EA00003434EEA0B484FF0000EB2EB080C71EB17
:100EB000030724BF624639464EEB0E0E4FF0000B7F
:100EC0000018524149414BEB0B0BB2EB080C71EB94
:100ED00003077BF1000B24BF624639464EEB0E0E32
:100EE0004FF0000B0018524149414BEB0B0BB2EB9A
:100EF000080C71EB03077BF1000B24BF62463946F7
:100F00004EEB0E0E51EA020718BF46F0010616EB33
:100F10000E7655F1000254F1000103D5BDE88901B8
:100F2000BDE80088BDE88901BDE80048B619524116
:100F300041EB0101A3F10103704780807F7E7D7C3E
:100F40007B7A7978777676757473727171706F6E5B
:100F50006E6D6C6C6B6A6A69686867666665646406
:100F6000636362616160605F5F5E5E5D5D5C5C5B90
:100F70005B5A5A59595858575756565555555454FF
:100F8000535352525251515050504F4F4F4E4E4D5D
:100F90004D4D4C4C4C4B4B4B4A4A4A4949494848A9
:100FA00048474747474646464545454444444443E9
:100FB00043434342424242414141002B9C4630D48C
:100FC00077002BD01CB54FEA370703B44FF0100061
:100FD0004FF01001BAF1000F06D0BCF1000FDCBFDA
:100FE00040F0080040F008014FF000000FBCBDE8E1
:100FF00010400BF1010BBBF1010F08BF5FEA1707AF
:1010000022BF12F1010211F101014FF0004143F141
:10101000000300F0004043EA00007047F9D357088E
:10102000D0E746EA064613F1400F4FEA16461FDDA9
:1010300013F1200FDFBF16430A46002120335B4225
:10104000BED0C3F1200746EA064602FA07F74FEA88
:10105000164646EA0706C3F1200722FA03F201FA10
:1010600007F721FA03F14FF0000342EA0702A7E76E
:1010700046EA020646EA06464FEA164646EA0106F0
:10108000BCBF46EA0646360C4FF000034FF00002A4
:101090004FF0000194E72DE9804C9A46934670B4D6
:1010A00091E8380007C831EA400C48BF34EA430CE5
:1010B00003D5FFF7E6FDFFF780FFF0BCBDE8008C2D
:1010C0002DE9804C9A46934670B491E8380007C8E1
:1010D00010F0804F08BF13F0804F03D100F005F8E7
:1010E000FFF76BFFF0BCBDE8008C20F07F4780EA83
:1010F000030023F07F4C07EB0C03A3F57C5300F0B7
:101100000040A3F1FE0392F0000F00F0B38095F0D1
:10111000000F00F077802DE901494FEA11404FEAB6
:10112000144621EA004800FB06FC24EA064708FBB7
:1011300006F607FB08F800FB07F718EB06484CEB30
:10114000164C4FEA124B18EB07484FEA15464CEB8A
:10115000174022EA0B4E0BFB06FC25EA06470EFB66
:1011600006F607FB0EFE0BFB07F71EEB064E4CEBDD
:10117000164C4FF000061EEB074E4CEB174B18EBCE
:101180000B0840F1000018EB0E0B58EB000840F183
:1011900000008F1A4FF000013CBFC943661B14BF0B
:1011A000B5EB040C00213CBFC943F61B4FEA1744C2
:1011B0004EEA8E0E27EA04454FEA1C4704FB0762FD
:1011C0002CEA074C05FB07F70CFB05F604FB0CFCAF
:1011D00016EB074642EB174216EB0C4642EB1C425D
:1011E0001BEB060658EB0202414146EA9E0601D57A
:1011F000BDE80189B619524141EB0101A3F1010398
:10120000BDE801894FEA14454FEA114724EA054633
:1012100021EA074C05FB07F406FB07F70CFB06F178
:1012200005FB0CFC11EB074144EB17444FEA124756
:1012300011EB0C4144EB1C4422EA074C05FB07F27E
:1012400006FB07F70CFB06F605FB0CFC16EB074646
:1012500042EB174216EB0C4642EB1C456A1854F160
:10126000000148BF7047B619524141EB0101A3F19B
:101270000103704795F0000F37D04FEA11424FEA53
:10128000144721EA024624EA074C02FB07F106FB59
:1012900007F70CFB06F402FB0CFC14EB074441EBD4
:1012A00017414FEA154714EB0C4441EB1C4125EA6A
:1012B000074C02FB07F506FB07F70CFB06F602FBE3
:1012C0000CFC16EB074645EB174516EB0C4645EBB9
:1012D0001C42121951F1000148BF7047B619524122
:1012E00041EB0101A3F1010370474FEA14454FEAB6
:1012F000114724EA054621EA074C05FB07F106FBE6
:1013000007F70CFB06F24FF0000605FB0CFC12EB96
:10131000074241EB174112EB0C4251EB1C4148BF15
:101320007047921841EB0101A3F10103704770B5BA
:101330000546AC6AE06D00F0500098BBE06D40F4EB
:101340000070E0652068006800F00800A8B120681F
:1013500002F0CBFA10B32068C06800F40050E8B97E
:10136000E06D20F48070E065E06D00F48050A8B975
:10137000E06D40F00100E06510E02068C06800F01A
:10138000020058B9E06D20F48070E065E06D00F473
:10139000805018B9E06D40F00100E065204600F093
:1013A0006FFC0CE0FFE7E06D00F0100018B1204684
:1013B00000F068FC03E0606D416B2846884770BD13
:1013C00070B50546AC6AE06D40F04000E065206E07
:1013D00040F004002066204600F054FC70BD70B55B
:1013E0000446A56A284600F04CFC70BD70B5044662
:1013F000206802F05CFA0646206802F05DFA70B3DD
:101400006EBB2068806800F00D0001280AD12068BA
:101410008168174A1140891C816000BF0320216840
:10142000086009E0E06D40F01000E065206E40F0DB
:1014300001002066012070BD01F07EF805460FE036
:1014400001F07AF8401B02280AD9E06D40F0100044
:10145000E065206E40F0010020660120EBE705E02A
:101460002068806800F001000028E9D10020E2E750
:10147000C0FFFF7F70B50446206802F01DFA88BBEC
:10148000206880681849084048B1E06D40F01000BD
:10149000E065206E40F001002066012070BD2068EC
:1014A00002F0EAF901F048F8054615E0206802F07C
:1014B00003FA10B9206802F0DFF901F03DF8401B93
:1014C000022809D9E06D40F01000E065206E40F080
:1014D000010020660120E1E72068006800F00100BB
:1014E0000028E3D00020D9E73F00008000BFFEE7DE
:1014F00030B50E4D0468AC4201D20D4901E00C49F3
:1015000020310B460478083C1425B4FBF5F2446CFA
:10151000A40803EB84048464054C8034C46402F0A2
:101520001F050124AC40046530BD000008040240E2
:101530000008024001794A1E064B03EB8202426515
:10154000044A403282654A1E02F01F0301229A407B
:10155000C26570470009024030B5D0E913546C6091
:10156000446D14B1D0E916546C6090F8444004F016
:101570001F050124AC40056C6C60046863608468DE
:10158000102C04D10468A2600468E16003E00468E0
:10159000A1600468E26030BD7047002109E00022CC
:1015A00001E0531C9AB240F6B8339A42F9DB4B1C67
:1015B00099B28142F3DB704772B600BFFEE70000CC
:1015C000F8B504460D460020009000BF94F858007E
:1015D000012801D10220F8BD012084F8580000BF85
:1015E0002046FFF703FF06468EBBE06D20F48850CF
:1015F00040F00200E065206881681B4A114005F058
:10160000804242F000421143816000BF13E0009825
:10161000401C00901549009888420CD3E06D20F0E2
:10162000020040F01000E06500BF002084F8580080
:1016300000BF0120CFE720688168C90F0029E6D1EB
:10164000E06D20F0020040F00100E06504E0FFE7FB
:10165000E06D40F01000E06500BF002084F8580005
:1016600000BF3046B7E70000C0FFFF3F02DE0400C6
:101670002DE9F0439BB004460E464FF00008306859
:1016800000B100BF00BF94F85800012803D1022028
:101690001BB0BDE8F083012084F8580000BF20682B
:1016A000B0F1A04F02D13248009001E0002000903C
:1016B000009850B9E06D40F02000E06500BF0020C8
:1016C00084F8580000BF0120E2E7009802F008F912
:1016D0000746206802F004F9D8BBD7BB254D306817
:1016E00000B394F83800716841EA4030A96821F4E9
:1016F00060410843A8604FF0A04002F0E2F8814644
:101700001B4802F0DEF849EA0009B9F1000F27D1C1
:10171000B16830680843A96840F61F7291430843D6
:10172000A8601DE0A86820F46040A8604FF0A040C9
:1017300002F0C7F881460E4802F0C3F849EA0009F2
:10174000B9F1000F0CD1A86840F61F718843A8605A
:1017500006E0FFE7E06D40F02000E0654FF0010893
:1017600000BF002084F8580000BF404690E700000A
:1017700000010050000300502DE9F84F05460C46CB
:101780004FF0000A00200090FE49E068884200D037
:1017900000E000BF00BF95F85800012802D10220E8
:1017A000BDE8F88F012085F8580000BF286802F0D6
:1017B00092F800287DD12968D4E9002001F1300C8D
:1017C000C0F3012B0CEB8B03D3F800C000F01F0E0D
:1017D0004FF01F0B0BFA0EFB2CEA0B0C00F01F0B4B
:1017E000C2F3846E0EFA0BFE4CEA0E0CC3F800C076
:1017F00000BF286802F06FF88146286802F052F8AE
:101800008046B9F1000F64D1B8F1000FFBD1A06898
:10181000B0F1004F0AD121680022286802F076F862
:101820004FF00041286802F096F808E0A2682168AD
:10183000286802F06BF80021286802F08CF86069D3
:101840002968C968C1F3C101490000FA01F720699C
:1018500004283FD028682268216900F1600C0CEB55
:101860008103D3F800C0DFF820B30CEA0B0C02F0C0
:10187000F84B4BF0004B4BEA070B4CEA0B0CC3F850
:1018800000C000BF2868A269216900F1600C0CEB60
:101890008103D3F800C02CF0807C4CEA020CC3F822
:1018A00000C000BF2868227F2169012A02D15206A8
:1018B00001E0C5E10022134600F1600C0CEB81024F
:1018C000D2F800C02CF0007C4CEA030CC2F800C037
:1018D00000BFA7E00021286801F0DBFFC0F3120081
:1018E00030B90021286801F0D4FFC0F3846007E01C
:1018F0000021286801F0CDFF90FAA0F0B0FA80F046
:101900002168C1F3120119B92168C1F3846104E0AF
:10191000216891FAA1F1B1FA81F1884204D1002243
:101920001146286802F00CF80121286801F0B1FF87
:10193000C0F3120030B90121286801F0AAFFC0F3FA
:10194000846007E00121286801F0A3FF90FAA0F06D
:10195000B0FA80F02168C1F3120119B92168C1F30E
:10196000846104E0216891FAA1F1B1FA81F1884221
:1019700004D100220121286801F0E2FF0221286839
:1019800001F087FFC0F3120030B90221286801F08E
:1019900080FFC0F3846007E00221286801F079FF2E
:1019A00090FAA0F0B0FA80F02168C1F3120119B9E1
:1019B0002168C1F3846104E0216891FAA1F1B1FAD0
:1019C00081F1884204D100220221286801F0B8FF89
:1019D0000321286801F05DFFC0F3120030B9032134
:1019E000286801F056FFC0F3846007E003212868EF
:1019F00001F04FFF90FAA0F0B0FA80F02168C1F337
:101A0000120119B92168C1F3846104E0216891FAD7
:101A1000A1F1B1FA81F1884204D1002203212868A2
:101A200001F08EFF286801F047FF002872D1286876
:101A3000E2682168D0F8B030C1F3120C23EA0C033D
:101A400002F0180BDFF844C12CFA0BFC0CEA010C75
:101A500043EA0C03C0F8B03000BF4A49E06888424E
:101A600058D12368C3F312031BB92368C3F38463FB
:101A700004E0236893FAA3F3B3FA83F35B1C03F047
:101A80001F03092B3ED82368C3F312031BB9236835
:101A9000C3F3846304E0236893FAA3F3B3FA83F3F4
:101AA0005B1C03F01F034FF0010C0CFA03FC2368CE
:101AB000C3F312031BB92368C3F3846304E02368F0
:101AC00093FAA3F3B3FA83F35B1C03F01F034CEA0E
:101AD000836C2368C3F312031BB92368C3F38463C5
:101AE00004E0236893FAA3F3B3FA83F35B1C03F0D7
:101AF0001F0303EB43034FF0000B4BEA03534CEA85
:101B0000030347E02368C3F3120323B92368C3F335
:101B1000846305E043E0236893FAA3F3B3FA83F305
:101B20005B1C03F01F034FF0010C0CFA03FC23684D
:101B3000C3F312031BB92368C3F3846304E023686F
:101B400093FAA3F3B3FA83F35B1C03F01F034CEA8D
:101B5000836C2368C3F312031BB92368C3F3846344
:101B600004E0236893FAA3F3B3FA83F35B1C03F056
:101B70001F030A3B03EB43034FF0007B4BEA035385
:101B800006E0000000007F4000F0FF03FFFF0700B9
:101B90004CEA03031946A268286801F0B7FE2F49F2
:101BA0002068084048B300BF2D48806800F0E07608
:101BB00000BF2C492068884203D02B492068884206
:101BC0001CD106F40000C8B92868B0F1A04F3DD17F
:101BD00046F40001224801F0ADFE24480068244983
:101BE000B0FBF1F000EB40008000009002E00098B4
:101BF000401E009000980028F9D127E01D49206878
:101C000088420CD106F0807048B91B492868884288
:101C10001CD046F08071124801F08CFE16E0174986
:101C20002068884212D106F4800078B912492868E9
:101C300088420BD046F48001094801F07BFE05E0A4
:101C4000E86D40F02000E8654FF0010A00BF002079
:101C500085F8580000BF5046A2E50000000008804B
:101C600000030050000021C31000C09018000020A5
:101C7000400D0300000052C700010050000084CB5B
:101C800070477047704700002DE9F84F04464FF049
:101C900000090020009014B90120BDE8F88F6069A8
:101CA00020B194F82400012800D100BFE06D30B9C4
:101CB000204600F01BF90020206684F858002068B8
:101CC0008168C1F3407131B120688168804A114058
:101CD000816000BF00BF206801F0F8FDA0B9206856
:101CE00081687C4A114041F08051816000BF7A4890
:101CF00000687A49B0FBF1F0009002E00098401EC5
:101D0000009000980028F9D1206801F0DFFD48B963
:101D1000E06D40F01000E065206E40F001002066AC
:101D20004FF00109206801F0D6FD0646E06D00F095
:101D3000100000287CD1002EFCD1E06D20F48070D2
:101D400040F00200E065206801F0B6FDB0B94FF048
:101D5000A04001F0B1FD8246614801F0ADFD4AEAC4
:101D6000000ABAF1000F09D160685E49896821F460
:101D70007C1101435B4A916000BF00BF607FE16B53
:101D800041EA4030E1680843A168084394F8241010
:101D900040EA014594F82400012803D1208D401E1B
:101DA00045EA4045E06A28B1A08D00F47870216BC7
:101DB000084305432068C0684B4908402843216810
:101DC000C8602068006920F04060616B08432168AA
:101DD0000861206801F07FFD8046206801F062FD07
:101DE0000746B8F1000F50D1F7BB207F002141EA30
:101DF000803194F8380041EA40052068C06844F218
:101E00000201884328432168C860206988B120689E
:101E1000006940F48030216808612068D0F8C00073
:101E20006FF30D00216908432168C1F8C0000EE07E
:101E300045E02068006920F480302168086120684E
:101E4000D0F8C0006FF30D002168C1F8C00094F80D
:101E50004000012813D1606C40F00101A06C0843E0
:101E6000E16C0843216D00E00FE008432168096937
:101E700040F2FC72914308432168086105E0206844
:101E8000006920F00100216808616069012809D11A
:101E90002068006B20F00F00216A491E084321686A
:101EA000086305E02068006B20F00F0021680863DC
:101EB000E06D20F0020040F00100E06505E0E06D1B
:101EC00040F01000E0654FF001094846E5E60000EB
:101ED000C0FFFF5FC0FFFF7F18000020400D030020
:101EE00000010050000300500740F0FF10B598B00B
:101EF0000446142113A8FEF786FA442102A8FEF72F
:101F000082FA2068B0F1A04F56D14FF40040029001
:101F10008003119002A800F067FC08B1FFF74CFBAA
:101F200054480068401C534908600846006801286E
:101F30000DD100BF5048C06C40F400504E49C864F9
:101F40000846C06C00F40050019000BF00BF00BF05
:101F50004948C06C40F002004749C8640846C06C5C
:101F600000F00200019000BF00BF8814139003200E
:101F700014900020159013A9404800F0F1F9404852
:101F8000404908600520486000213E488160C160EA
:101F90008021016149004161890081612021C16185
:101FA0000021016200F0FEF808B1FFF705FB00BF59
:101FB0003448606584625BE033492068884257D1C9
:101FC000C00102908003119002A800F00DFC08B13E
:101FD000FFF7F2FA27480068401C264908600846C7
:101FE000006801280DD100BF2348C06C40F40050A8
:101FF0002149C8640846C06C00F40050019000BF3D
:1020000000BF00BF1C48C06C40F002001A49C86401
:102010000846C06C00F00200019000BF00BF4FF402
:1020200000401390032014900020159013A913482A
:1020300000F096F9124814301449086024204860D2
:10204000002112488160C160802101614900416125
:10205000890081612021C1610021016200F0A2F8A4
:1020600008B1FFF7A9FA00BF08486065846200BFA5
:1020700018B010BD0000002000100240000400480D
:1020800008000240F400002000010050540100202C
:102090002DE9F04104460F4690463D4801F0F4FB1F
:1020A0000646206801F017FC00286DD100BF94F8A7
:1020B0005800012802D10220BDE8F081012084F8F7
:1020C000580000BF1EB1052E01D0092E56D1204662
:1020D000FFF7D0F90546002D4BD1E06D40F60161C8
:1020E000884340F48070E0652A492068884202D124
:1020F0004FF0A04000E020682168884200D01EB95F
:10210000E06D20F48010E065E06D00F4805020B1B7
:10211000206E20F00600206601E0002020661E48A8
:10212000616DC8621D48616D08631D48616D48633B
:102130001C202168086000BF002084F8580000BF00
:102140002068406840F01000216848602068C0683E
:1021500040F001002168C860226802F14001434656
:102160003A46606D00F086F80546206801F0C6FB2F
:102170000BE000BF002084F8580006E0012500BFF6
:10218000002084F8580000E00225284694E700006B
:1021900000030050000100502F130008DF13000857
:1021A000C113000870B504460CB9012070BD2F4959
:1021B000206888420BD22E492068401A1421B0FBB7
:1021C000F1F0800060642A48083820640AE027495A
:1021D0002068401A1421B0FBF1F0800060642348AD
:1021E00008382064022084F825002068056847F636
:1021F000F0708543D4E9020108432169084361690D
:102200000843A1690843E1690843216A084305437B
:10221000206805602046FFF76BF9A068B0F5804F95
:1022200001D1002060602079A16C0860D4E913100E
:102230004860606860B16068042809D82046FFF7EC
:1022400079F90020616D0860D4E91610486003E058
:1022500000206065A065E0650020E063012084F84F
:102260002500002084F8240000BF9FE708040240F6
:10227000080002402DE9F04104460D4616461F466F
:102280004FF0000800BF94F82400012802D102207A
:10229000BDE8F081012084F8240000BF94F82500F7
:1022A00001283FD1022084F825000020E063206847
:1022B000006820F00100216808603B46324629464C
:1022C0002046FFF749F9206B30B12068006840F0E4
:1022D0000E00216808600BE02068006820F0040010
:1022E000216808602068006840F00A0021680860E2
:1022F000A06C006800F4803028B1A06C006840F445
:102300008070A16C0860606D28B1606D006840F459
:102310008070616D08602068006840F001002168ED
:10232000086006E000BF002084F8240000BF4FF0E2
:1023300002084046ACE7000070B5044600F0FCF827
:1023400006462546681C10B104480068054400BFD5
:1023500000F0F2F8801BA842FAD370BD14000020F0
:1023600078B503460022D0E0012696400D6805EAC4
:102370000604002C72D04D68012D08D04D68022D46
:1023800005D04D68112D02D04D68122D13D19868DB
:1023900056000325B540A8435600CD68B5402843F4
:1023A0009860586801259540A8430D79C5F300153C
:1023B000954028435860D86856000325B540A84387
:1023C00056008D68B5402843D8604D68022D02D074
:1023D0004D68122D13D1D60803F1200555F82600BB
:1023E0005507EE0E0F25B540A8435607F60E0D69AA
:1023F000B5402843D60803F1200545F826001868A3
:1024000056000325B540A8430D7905F00305560095
:10241000B540284318604D6805F08055B5F1805FE0
:1024200072D100BF3C4D2D6E45F001053A4E356628
:1024300035462D6E05F00105009500BF00BF4FEA3F
:10244000B635960855F8260095072E0F0F25B5408E
:10245000A843B3F1904F02D100251AE054E02F4D6C
:10246000AB4201D1012514E02D4DAB4201D1022533
:102470000FE02C4DAB4201D103250AE02A4DAB42BF
:1024800001D1042505E0294DAB4201D1052500E02D
:1024900006259607360FB5402843254D960845F882
:1024A0002600244D2868A0434D6805F48035B5F515
:1024B000803F00D120431F4D28602D1D2868A04378
:1024C0004D6805F40035B5F5003F00D12043194DA6
:1024D0002D1D28602D1D2868A0434D6805F480152A
:1024E000B5F5801F00D12043124D083528602D1D01
:1024F0002868A0434D6805F40015B5F5001F00D10C
:1025000020430C4D0C352860521C0D68D540002D21
:102510007FF42AAF78BD000000100240000400489C
:1025200000080048000C0048001000480014004853
:1025300008000140000401400148006870470000A5
:102540000C00002003480068034909680844014959
:10255000086070470C0000201400002010B5002413
:10256000032000F097F80F2000F008F808B10124CC
:1025700001E000F02FF8204610BD000070B50446C1
:10258000002511480068D8B10F4800684FF47A71EF
:10259000B1FBF0F00D490968B1FBF0F6304600F0F0
:1025A000EDFE58B9102C07D200222146501E00F033
:1025B00033F80748046004E0012502E0012500E04B
:1025C0000125284670BD00001400002018000020DE
:1025D0001000002008B500BF0E48006E40F001005A
:1025E0000C4908660846006E00F00100009000BF2C
:1025F00000BF00BF0846806D40F0805088650846E7
:10260000806D00F08050009000BF00BF00F0E2F845
:1026100008BD0000001002402DE9F05F80460D4625
:10262000164601F0ADFC074639462A46334601F00E
:102630000700C0F1070ABAF1040F02D94FF0040AEB
:1026400001E0C0F1070AD14600F1040ABAF1070F10
:1026500002D24FF0000A01E0A0F1030AD4464FF085
:10266000010A0AFA09FAAAF1010A0AEA020A0AFAAE
:102670000CFA4FF0010B0BFA0CFBABF1010B0BEA60
:10268000030B4AEA0B042146404601F081FCBDE8F9
:10269000F09F000000BF00F00702064B19684FF6DC
:1026A000FF031940044B0B4343EA0221014B19601D
:1026B00000BF70470CED00E00000FA0502468ABB3F
:1026C0004148006800F4C060B0F5806F2BD13E48EF
:1026D0008030006820F480703B4BC3F880001846BF
:1026E000006820F4C06040F400701860374800684B
:1026F00032235843364BB0FBF3F0411C00E0491E37
:102700003148406900F48060B0F5806F01D1002944
:10271000F5D12D48406900F48060B0F5806F51D14B
:102720000320704708E028488030006820F480705B
:10273000254BC3F8800045E0B2F5007F3AD122482E
:10274000006800F4C060B0F5806F2AD11E48803068
:10275000006840F480701C4BC3F880001846006885
:1027600020F4C06040F400701860184800683223FC
:102770005843174BB0FBF3F0411C00E0491E1248D0
:10278000406900F48060B0F5806F01D10029F5D177
:102790000D48406900F48060B0F5806F12D10320CD
:1027A000BFE709488030006840F48070064BC3F8EA
:1027B000800007E00448006820F4C06040F48060B6
:1027C000014B18600020ACE70070004018000020AA
:1027D00040420F000348806840F48040014988600F
:1027E00070470000007000402DE9F84304460027C0
:1027F000B846206800F40020B0F5002F73D1B94628
:10280000D348806D00F0805078B900BFD048806D0B
:1028100040F08050CE4988650846806D00F08050B9
:10282000009000BF00BF4FF00109CA48006840F4A3
:102830008070C8490860FFF77FFE064606E0FFF794
:102840007BFE801B022801D9032705E0C1480068F0
:1028500000F480700028F2D000BF002F46D1BC48A1
:102860009030006800F44075CDB1206CA84216D0BD
:10287000B7489030006820F44075B548D0F8900013
:1028800040F48030B249C1F890000846D0F890007A
:1028900020F48030C1F890000846C0F8905005F050
:1028A0000100A0B1FFF748FE064608E0FFF744FE2E
:1028B000801B41F28831884201D9032706E0A448F1
:1028C0009030006800F002000028EFD000BF5FB930
:1028D0009F489030006820F44070216C08439C4968
:1028E000C1F8900003E00CE0B84600E0B846B9F14A
:1028F000010F05D19648806D20F08050944988657D
:1029000000BF207800F0010048B19148883000688D
:1029100020F00300616808438D49C1F888002078E1
:1029200000F00200022809D189488830006820F0B0
:102930000C00A16808438649C1F88800207800F09F
:102940000400042809D182488830006820F0300053
:10295000E16808437E49C1F88800207800F008004B
:10296000082809D17A488830006820F0C000216921
:1029700008437749C1F88800207800F0200020281B
:1029800009D173488830006820F4406061690843C9
:102990006F49C1F88800207800F04000402809D134
:1029A0006B488830006820F44050A16908436849AA
:1029B000C1F88800207800F08000802809D16448A0
:1029C0008830006820F44040E16908436049C1F85C
:1029D0008800208800F48070B0F5807F09D15C48C1
:1029E0008830006820F44030216A08435849C1F813
:1029F0008800208800F40070B0F5007F09D15448A9
:102A00008830006820F44020616A08435049C1F8CA
:102A10008800208800F48060B0F5806F13D14C48A6
:102A20008830006820F44010A16A08434849883182
:102A30000860A06AB0F5801F05D14548C06840F421
:102A400080104349C860208800F40060B0F5006F32
:102A500013D13F488830006820F44000E16A084301
:102A60003B4988310860E06AB0F5800F05D13848ED
:102A7000C06840F480103649C860208800F4805057
:102A8000B0F5805F13D132488830006820F0407084
:102A9000216B08432E4988310860206BB0F1807F9C
:102AA00005D12B48C06840F480102949C8602088AF
:102AB00000F40050B0F5005F13D12548883000685D
:102AC00020F04060616B0843214988310860606BE9
:102AD000B0F1006F05D11E48C06840F480101C4959
:102AE000C860208800F48040B0F5804F13D11848AA
:102AF0008830006820F04060A16B08431449883199
:102B00000860A06BB0F1006F05D11148C06840F4B7
:102B100080100F49C860208800F40040B0F5004FD5
:102B200013D10B488830006820F04050E16B084317
:102B3000074988310860E06BB0F1805F05D1044837
:102B4000C06840F480300249C8604046BDE8F88360
:102B500000100240007000402DE9F04104460D468F
:102B60004FF0000814B90120BDE8F0817D480068ED
:102B700000F00F00A8420ED27A48006820F00F0043
:102B80002843784908600846006800F00F00A84212
:102B900001D00120E8E7207800F00100002864D08F
:102BA0006068032823D17048006800F0007008B9FD
:102BB0000120D9E700F0BEFF06466C48864237D9AF
:102BC0006948806800F0F00030B1207800F0020021
:102BD00002282DD1A06858BB6348806820F0F0001F
:102BE00040F08000604988604FF0800820E0606815
:102BF000022806D15C48006800F4003040B901208A
:102C0000B2E75948006800F4806008B90120ABE7DA
:102C100000F0B4F806465548864209D95248806803
:102C200020F0F00040F080004F4988604FF08008AD
:102C30004D48806820F00300616808434A49886075
:102C4000FFF77AFC074608E0FFF776FCC01B41F26D
:102C50008831884201D9032086E74348806800F024
:102C60000C006168B0EB810FEED1207800F002001B
:102C7000022820D1207800F00400042805D13A4829
:102C8000806840F4E06038498860207800F00800EF
:102C9000082807D13448806820F4605040F4E06090
:102CA000314988603048806820F0F000A16808430E
:102CB0002D49886008E0B8F1800F05D12A48806866
:102CC00020F0F000284988602648006800F00F00D6
:102CD000A84219D92348006820F00F002843214951
:102CE0000860FFF729FC074608E0FFF725FCC01B3A
:102CF00041F28831884201D9032035E7194800683C
:102D000000F00F00A842F0D1207800F00400042861
:102D100007D11548806820F4E060E1680843124953
:102D20008860207800F00800082808D10E488068E4
:102D300020F46050216940EAC1000B49886000F02E
:102D40001DF809498968C1F30311094A515C01F072
:102D50001F01C8400749086007480068FFF70EFCDC
:102D600002E70000002002400010024000B4C4044A
:102D70008E570008180000201000002070B5224D6A
:102D8000AD6805F00C05042D01D120483AE01E4D38
:102D9000AD6805F00C05082D01D11D4832E01A4D33
:102DA000AD6805F00C050C2D2BD1174DED6805F025
:102DB0000304154DED68C5F303156A1C022C0CD0F5
:102DC000032C09D1124DB5FBF2F50F4EF668C6F390
:102DD000062605FB06F10AE000BF0C4DB5FBF2F537
:102DE000094EF668C6F3062605FB06F100BF00BFD4
:102DF000054DED68C5F341656D1C6B00B1FBF3F04B
:102E000000E0002070BD0000001002400024F4002B
:102E100000366E012DE9F843044614B90120BDE8DF
:102E2000F883207800F00100002865D0FC48806815
:102E300000F00C07FA48C06800F003060C2F01D11F
:102E4000032E01D0082F0AD1F548006800F40030A5
:102E5000002851D0606800284ED10120DFE700BF74
:102E60006068B0F5803F06D1ED48006840F48030DE
:102E7000EB4908601AE06068B0F5A02F0BD1E84874
:102E8000006840F48020E64908600846006840F485
:102E9000803008600AE0E248006820F48030E049B1
:102EA00008600846006820F48020086000BF606861
:102EB00088B1FFF741FB054606E0FFF73DFB401BED
:102EC000642801D90320AAE7D548006800F400303F
:102ED0000028F2D010E0FFF72FFB054606E0FFF7D1
:102EE0002BFB401B642801D9032098E7CC480068DD
:102EF00000F400300028F2D1207800F0020002280F
:102F000060D1C748806800F00C07C548C06800F071
:102F100003060C2F01D1022E01D0042F18D1C04876
:102F2000006800F4806018B1E06808B9012076E715
:102F3000BB48406820F0FE40217C40EA0160B8496F
:102F40004860B8480068FFF719FB18B3012066E72E
:102F5000E06800B3B248006840F48070B04908608F
:102F6000FFF7EAFA054606E0FFF7E6FA401B0228FB
:102F700001D9032053E7AA48006800F480600028C4
:102F8000F2D0A748406820F0FE40217C40EA016072
:102F9000A349486016E0A248006820F48070A04968
:102FA0000860FFF7C9FA054606E0FFF7C5FA401BBF
:102FB000022801D9032032E79948006800F48060B4
:102FC0000028F2D1207800F00800082836D1606986
:102FD000D0B193489430006840F001009049C1F8A6
:102FE0009400FFF7A9FA054606E0FFF7A5FA401B93
:102FF000022801D9032012E789489430006800F0C4
:1030000002000028F1D019E085489430006820F0D3
:1030100001008349C1F89400FFF78EFA054606E0E7
:10302000FFF78AFA401B022801D90320F7E67C4803
:103030009430006800F002000028F1D1207800F000
:103040000400042872D14FF000087548806D0121FA
:1030500021EA107078B100BF7148806D40F0805057
:103060006F4988650846806D00F08050009000BF71
:1030700000BF4FF001086C48006800F48070B0B9E0
:103080006948006840F4807067490860FFF754FAA7
:10309000054606E0FFF750FA401B022801D903203D
:1030A000BDE66148006800F480700028F2D000BFDF
:1030B000A068012808D15A489030006840F001000B
:1030C0005749C1F8900021E0A06805280FD1544865
:1030D0009030006840F004005149C1F89000084663
:1030E000D0F8900040F00100C1F890000EE04C488C
:1030F0009030006820F001004949C1F8900008466E
:10310000D0F8900020F00400C1F8900000BFA06843
:10311000A8B1FFF711FA054609E0FFF70DFA401BC9
:1031200041F28831884202D9032078E625E03C4804
:103130009030006800F002000028EED013E0FFF7A6
:10314000FBF9054608E0FFF7F7F9401B41F288312B
:10315000884201D9032062E631489030006800F0CF
:1031600002000028EFD1B8F1010F05D12C48806D85
:1031700020F080502A49886500BF207800F02000A8
:10318000202836D1A069D0B125489830006840F099
:1031900001002349C1F89800FFF7CEF9054606E083
:1031A000FFF7CAF9401B022801D9032037E61C4863
:1031B0009830006800F002000028F1D019E01848AB
:1031C0009830006820F001001549C1F89800FFF719
:1031D000B3F9054606E0FFF7AFF9401B022801D915
:1031E00003201CE60E489830006800F0020000281A
:1031F000F1D1E069002860D00948806800F00C0037
:103200000C287FD0E069022858D10548006820F0DA
:10321000807003490860FFF78FF905460DE0000054
:10322000001002401000002000700040FFF784F9F9
:10323000401B022801D90320F1E54D48006800F049
:1032400000700028F2D1D4E90810401E41EA0011B4
:10325000A06A41EA0021208E0122C2EB500041EA1F
:1032600040513420005DC2EB500041EA40612C2007
:10327000005D41EAC0603E49C9683E4A11400843CA
:103280003B49C8600846006840F080700860084606
:10329000C06840F08070C860FFF74EF9054606E050
:1032A000FFF74AF9401B022801D90320B7E530484F
:1032B000006800F000700028F2D056E02C4800684A
:1032C00020F080702A4908600846C06820F003009A
:1032D000C8600846C068284908402549C860FFF70B
:1032E0002BF9054607E00DE0FFF726F9401B022801
:1032F00001D9032093E51E48006800F00070002803
:10330000F2D132E0E069012800D188E51848C668AA
:1033100006F00301206A814225D106F0F001606ABF
:10332000401EB1EB001F1ED106F4FE41A06AB1EBB6
:10333000002F18D106F078412C20005DB1EBC06F52
:1033400011D106F4C001208E0122C2EB5000B1EB76
:10335000405F08D106F0C0613420005DC2EB500030
:10336000B1EB406F01D0012059E5002057E5000086
:10337000001002400C809F01FFFFEEFE70B5044676
:103380002546681EB0F1807F01D301200FE0681E42
:103390004FF0E02148610F214FF0FF3000F0F8FDC1
:1033A00000204FF0E021886107200861002070BDF7
:1033B00000BFFEE700B585B014216846FDF723F88D
:1033C0004FF6FF7000900020019003200390002032
:1033D000029069460248FEF7C3FF05B000BD000039
:1033E0000008004800B585B014216846FDF70BF8C9
:1033F0004FF6FF7000900120019003200390002001
:10340000029069460248FEF7ABFF05B000BD000020
:103410000008004830B5054600240021084600F0A9
:1034200047F900F099F900BF03E0284600F054F98D
:10343000641CB4F5963FF8D330BD000000B587B0EA
:10344000142102A8FCF7DFFF00BF2A48C06C40F03F
:1034500004002849C8640846C06C00F004000190CC
:1034600000BF00BF00BF0846C06C40F00100C86448
:103470000846C06C00F00100019000BF00BF00BF13
:103480000846C06C40F00200C8640846C06C00F0FA
:103490000200019000BF00BF4FF44870029001206D
:1034A000039000200590049002A91348FEF758FFEE
:1034B0004FF480700290012003900020059004904A
:1034C00002A94FF09040FEF74BFFFFF78BFF4FF044
:1034D0009040806940F480704FF0904188610648C8
:1034E0001830006840F4087003491831086007B0CC
:1034F00000BD0000001002400004004870B5054601
:103500000E461446A4F12000C4B204EB4400044962
:1035100001EB00123146284600F01AF870BD000099
:10352000BE450008F0B507460C46002540F23F16A0
:1035300009E0227831463846FFF7E0FFA6F1100097
:1035400086B2641C6D1C207808B1142DF1D3F0BD37
:103550002DE9F04306468946174600240025A0467B
:10356000B0464946404600F0A3F800BF1EE000F018
:10357000F3F800250FE037F814000121A9400840B6
:1035800020B90C48008800F0A7F803E00A4800883A
:1035900000F0A2F86D1C102DEDD308F1010000F031
:1035A000FF084946404600F083F8641C182CDED31F
:1035B000BDE8F083060000200400002010B5FFF7EE
:1035C0003DFF002000F016F80949088008460088F1
:1035D00048F23021884202D100F0E0FA01E000F028
:1035E0006DFB002000F006F80149088010BD0000C6
:1035F0000800002070B504462748006840F40070B9
:10360000254908600846006840F480700860224838
:103610001038006840F020001F49103908601F482A
:1036200004601D48006840F020001B49086000BF8E
:1036300000BF00BF18481038006840F0200016494D
:10364000103908600846006840F480700860FFF791
:10365000B1FE4FF09040806A40F480704FF090418E
:10366000886200BF00BF00BF0C48001F006885B221
:103670004FF09040806940F480704FF09041886135
:10368000FFF7B0FE04481038006840F400700249AB
:1036900010390860284670BD280400481408004806
:1036A00001B5BDF800000149088008BD06000020F2
:1036B00030B504460D462146202000F08FF82946FB
:1036C000212000F08BF830BD01B5BDF800000149A4
:1036D000088008BD040000201D4A126891B21D4AEE
:1036E000126842F400721B4B1A601A4A103A1268B0
:1036F00042F48072174B103B1A601A46126842F06F
:1037000020021A60124A1060124A126842F0200227
:10371000104B1A6000BF00BF00BF0E4A103A12687B
:1037200042F020020B4B103B1A601A46126842F41A
:1037300080721A6000BF00BF00BF064A103A1268CC
:1037400042F40072034B103B1A60014A116070474B
:1037500014080048280400481E49096888B21E4918
:10376000096841F400711C4A11601146096841F46E
:103770008071116018491039096841F02001164A1A
:10378000103A11602221134A11601349096841F06F
:103790002001114A116000BF00BF00BF0E4910395F
:1037A000096841F020010C4A103A1160114609687D
:1037B00041F48071116000BF00BF00BF064910399D
:1037C000096841F40071044A103A11600149086027
:1037D00070470000140800482804004810B5244B26
:1037E0001B689AB2234B1B6843F40073214C23607F
:1037F00023461B6843F4807323601E4B103B1B68F9
:1038000043F020031B4C103C2360194B1860194BEC
:103810001B6843F02003174C236000BF00BF00BFAC
:10382000144B103B1B6843F02003124C103C2360E8
:1038300023461B6843F4807323600D4B19600D4BC6
:103840001B6843F020030B4C236000BF00BF00BF88
:10385000084B103B1B6843F02003064C103C2360D0
:1038600023461B6843F480732360014B1A6010BD2C
:1038700014080048280400488168024A1140491C85
:1038800081607047C0FFFF7F0146886800F01F001D
:103890007047024602F1600000EB8103186800F0F7
:1038A000F840704701468868C0F3C0007047014681
:1038B0008868C0F3400070470146886800F0010046
:1038C00070470146886800F001007047014688682B
:1038D000C0F30070704701468868C0F380007047ED
:1038E00001468868C0F3800070470146C86800F44C
:1038F000406008B9012070470020FCE78168024A57
:103900001140091D81607047C0FFFF7F70B500F155
:103910001404C1F3406504EB85031C68C1F304562D
:103920000725B540AC43C1F3045502FA05F52C4315
:103930001C6070BD826822F0E0720A4382607047AA
:1039400010B500F1600404EB81031C6824F000440E
:1039500014431C6010BD426922F000420A434261D8
:103960007047000000B58BB00020089009900A90C5
:1039700020216846FCF747FD4FF0A0402049086031
:103980004FF40030486000211D488160C160016132
:1039900041610421816100210177012141770162A8
:1039A000002180F82410C1620163012180F83810E1
:1039B0000021C16380F84010FEF766F908B1FDF7F9
:1039C000FBFD0020089008A90D48FDF751FE08B145
:1039D000FDF7F2FD0B4800900620019000200290B8
:1039E0007F2003900420049000200590694604483D
:1039F000FDF7C2FE08B1FDF7DFFD0BB000BD000012
:103A00001C0000200008302E00B589B0202101A83C
:103A1000FCF7F9FC1B481C49086040024860002183
:103A200019488160C1600161416104218161002107
:103A30000177012141770162002180F82410C162E1
:103A40000163012180F838100021C16380F8401023
:103A5000FEF71AF908B1FDF7AFFD0C4801900620FA
:103A60000290002003907F20049004200590002005
:103A7000069001A90448FDF77FFE08B1FDF79CFD03
:103A800009B000BD00010050880000200080F03E19
:103A900008B500BF0D48806C40F004000B498864F5
:103AA0000846806C00F00400009000BF00BF00BF1B
:103AB0000846806C40F0010088640846806C00F085
:103AC0000100009000BF00BF08BD000000100240D0
:103AD00008B500BF1348C06C40F020001149C8640D
:103AE0000846C06C00F02000009000BF00BF00BF7F
:103AF0000846C06C40F00200C8640846C06C00F084
:103B00000200009000BF00BF00BF0846C06C40F03C
:103B10000100C8640846C06C00F00100009000BFBE
:103B200000BF08BD0010024000BFFEE700BFFEE777
:103B30007047000070B5164DED6805F00304144D94
:103B4000ED68C5F303156B1C022C0CD0032C09D1B6
:103B5000104DB5FBF3F50E4EF668C6F3062605FBD1
:103B600006F10AE000BF0C4DB5FBF3F5084EF66810
:103B7000C6F3062605FB06F100BF00BF044DED6845
:103B8000C5F341656D1C6A00B1FBF2F070BD000029
:103B90000010024000366E010024F40000B501213F
:103BA0000020FFF71BFE4FF47A70FDF7F6FC0021B2
:103BB0000120FFF713FE41F290711020FFF70EFE77
:103BC0004FF41C516020FFF709FE01216120FFF72F
:103BD00005FE02214620FFF701FE48F210011320E6
:103BE000FFF7FCFD48F2FE011220FFF7F7FD4FF44E
:103BF000A0610220FFF7F2FD41F230010320FFF740
:103C0000EDFD40F203313020FFF7E8FD40F20331D3
:103C10003120FFF7E3FD40F203313220FFF7DEFDF4
:103C20004FF440713320FFF7D9FD03213420FFF713
:103C3000D5FD40F203313520FFF7D0FD14213620A9
:103C4000FFF7CCFD40F203313720FFF7C7FD40F20C
:103C500003313820FFF7C2FD40F203313920FFF76E
:103C6000BDFD4FF440713A20FFF7B8FD03213B2022
:103C7000FFF7B4FD40F203313C20FFF7AFFD4FF4F6
:103C8000A0513D20FFF7AAFD4FF400719220FFF7ED
:103C9000A5FD40F203319320FFF7A0FD40F60D0192
:103CA0009020FFF79BFD41F218010320FFF796FDDE
:103CB00040F273110720FFF791FD00BD10B543F2EC
:103CC0000801E320FFF78AFD1221E720FFF786FDB8
:103CD00041F23121EF20FFF781FD00210120FFF7A4
:103CE0007DFD4FF4E0610220FFF778FD41F23001E5
:103CF0000320FFF773FD00210420FFF76FFD40F262
:103D000007210820FFF76AFD00210920FFF766FD63
:103D100000210A20FFF762FD00210C20FFF75EFD65
:103D200000210D20FFF75AFD00210F20FFF756FD5F
:103D300000211020FFF752FD07211120FFF74EFD53
:103D400000211220FFF74AFD00211320FFF746FD56
:103D5000C820FEF7F1FA41F290611020FFF73EFD16
:103D600040F227211120FFF739FD3220FEF7E4FA57
:103D70001D211220FFF732FD3220FEF7DDFA4FF44D
:103D800000611320FFF72AFD14212920FFF726FDEB
:103D90000B212B20FFF722FD3220FEF7CDFA002168
:103DA0002020FFF71BFD00212120FFF717FD072131
:103DB0003020FFF713FD40F207713120FFF70EFDB1
:103DC00006213220FFF70AFD40F204713520FFF78B
:103DD00005FD41F604713620FFF700FD0421372070
:103DE000FFF7FCFC00213820FFF7F8FC40F20671D9
:103DF0003920FFF7F3FC40F201713C20FFF7EEFCA5
:103E00000F213D20FFF7EAFC00215020FFF7E6FCE0
:103E1000EF215120FFF7E2FC00215220FFF7DEFCEA
:103E200040F23F115320FFF7D9FC4FF41C516020A2
:103E3000FFF7D4FC01216120FFF7D0FC00216A20AC
:103E4000FFF7CCFC00218020FFF7C8FC0021812077
:103E5000FFF7C4FC00218220FFF7C0FC0021832073
:103E6000FFF7BCFC00218420FFF7B8FC002185206F
:103E7000FFF7B4FC10219020FFF7B0FC0021922046
:103E8000FFF7ACFC03219320FFF7A8FC4FF48871E7
:103E90009520FFF7A3FC00219720FFF79FFC00214E
:103EA0009820FFF79BFC41F218010320FFF796FCD6
:103EB00040F273110720FFF791FC10BD704710B559
:103EC000FEF740FB10BD00B593B0382105A8FCF704
:103ED0009AFA14216846FCF796FA4FF40070FEF740
:103EE000EDFB012005900004069002200C900321B8
:103EF0000D910E9114210F910221109111911291A7
:103F000005A8FEF787FF08B1FDF756FB0F200090CC
:103F10000320019000200290039004900221684643
:103F2000FEF71AFE08B1FDF747FB13B000BD000015
:103F30000548006840F47000034908604FF00060D5
:103F4000014980390860704788ED00E000BFFEE756
:103F500003B401984100009850EAC12018BF042022
:103F60004A0D18BF40F0010040F2FF72B2EB515F02
:103F700008BF40F00200012808BF052002B07047CA
:103F800002480068C0F30220704700000CED00E01A
:103F900010B5002804DB0A07130E054A135406E087
:103FA0000A07140E034A00F00F031B1FD45410BD60
:103FB00000E400E018ED00E030380A2801D20120CA
:103FC000704700207047000010B52DED068B13A13F
:103FD0004820FFF7A7FA1749088800F0D7F941EC05
:103FE0001A0B9FED150B53EC102B00F077F841ECFA
:103FF000190B9FED130B53EC102B00F0DBF941EC88
:10400000180B53EC182B10A11348FCF761F9124957
:104010006020FFF787FABDEC068B10BD2020202022
:1040200020202020444154412020202020202020F6
:1040300000000000B40100200000000000FEAF40BE
:104040006666666666660A40202020202056523347
:10405000373A252E32665600F0010020FEF77EFA30
:10406000FFF731FFFFF734FDFFF712FDFFF77AFC92
:10407000FFF7CAFCFFF7A2FA01220B490B48FEF733
:1040800007F87F210948FDF79BFA0020FFF7C2F9E6
:104090000020FFF705FB4FF6FF70FFF715FB01E06F
:1040A000FFF792FFFCE70000B40100208800002029
:1040B00010B500290AD00878002807D005487844B0
:1040C000FCF726FD002801D0002010BD02487844EE
:1040D00010BD00009E170000961700002DE9C0419A
:1040E00030B4DFF8A0C23CEA111418BF3CEA131444
:1040F00000F0EC8081EA03051CEA111444EAD5744F
:1041000018BF1CEA131500F0C780A4EB05044FF09C
:10411000004545EAC12145EAC32341EA505143EA3B
:10412000525304F17F74994204F500344FEAC020E1
:104130004FEAC22208BF904200F09C804FEA13650C
:104140000FF24016765D4FEA134506FB05F7C7F1FF
:10415000807706FB07F74FEAD737A7FB036876425D
:10416000C8F58038A7FB06CE38BFA8F1010807FBC9
:1041700008E64FF0000EA6FB028CE6FB03CEDCF156
:10418000000CCEF1004E38BFAEF1010EA6FB0C586C
:104190004FF000074FF00005E6FB0E87A1FB08C6B5
:1041A000A0FB07CE16EB0E0645F10005E1FB076507
:1041B00015F1E04E7EBFA4F580345FEA46066D41FE
:1041C00016F1800745F100054FEA17274FEA06660A
:1041D00047EA0567A6F1DE46B6F1805F4FEA15258E
:1041E0001FD9384624F0010C05EBC471BCF1FE6FF9
:1041F00001EB0C1102D8F0BCBDE8008124425CBF89
:1042000001F5801E9EEAC47F02D4F0BCBDE80081A7
:10421000244238D4F0BCA1F1C041BDE8004100F017
:10422000C1B94FEAD22242EA43524FEAD323A7FB55
:1042300002864FEAD02040EA415007FB03661EEA9F
:104240000E0F4FEAD12105FB026658BFA6EB0056C0
:10425000B6EB00564FEA520E4EEAC37E18EB0E0E36
:1042600056EB530EBDD518EB02085E417F1C55F18D
:104270000005B6E74FF480154FF000074FF0000639
:104280004FF00008ADE7F0BC4FF0000001F1C04175
:1042900001F00041BDE8008111EA0C1F0CEA131582
:1042A00000D00CE013EA0C1F00F025804FF0000056
:1042B000F0BC81EA030101F00041BDE80081F0BCDF
:1042C000BDE8004181EA030100F06CB9F0BCBDE833
:1042D000004170B500F018F9097EFC3E00F007B807
:1042E00081EA03014FF0000001F00041704781EACC
:1042F000030100F057B9F0BCBDE800414FF00000E9
:1043000021497047FFFDFBF9F7F5F4F2F0EEEDEB14
:10431000E9E8E6E4E3E1E0DEDDDBDAD8D7D5D4D3C3
:10432000D1D0CFCDCCCBCAC8C7C6C5C4C2C1C0BF0F
:10433000BEBDBCBBBAB9B8B7B6B5B4B3B2B1B0AF15
:10434000AEADACABAAA9A8A8A7A6A5A4A3A3A2A1F9
:10435000A09F9F9E9D9C9C9B9A99999897979695B4
:1043600095949393929191908F8F8E8E8D8C8C8B50
:104370008B8A8989888887878685858484838382D8
:10438000828181800000FF070000F87FB0FA80F38F
:1043900010FA03F10AD0C3F11D0303F580634FEA5D
:1043A00041504FEA035202EBD12170474FF0000019
:1043B00070470000DFF848C170B51CEA111E1EBF2F
:1043C0001CEA13159EEA0C0F95EA0C0F00F06F80A3
:1043D00081EA030423EA4C134EEAD47E21EA4C110D
:1043E00041F4801143F48013AE44A1FB024CA0FBC6
:1043F0000365AEF17F7E361955EB0C05A1FB034C2E
:104400004CF10003A0FB021C16EB0C06654153F1B6
:104410000003094218BF46F0010613F4007F0BD1D8
:104420004FEA03314FEA0530340341EA155140EABF
:1044300016506FF003020AE04FEAC3214FEAC5208D
:10444000F40241EA555140EA56506FF0020202EB85
:104450002E4201EB025585EACE710AD05FEA440C88
:1044600018BF24F0004450F1000041F1000120EA9F
:10447000D47040F2FE7C624500D270BDA84214BFE9
:104480004FF080444FF04044002E08BF0024BEF19E
:10449000806FA8BFA1F1C041BDE8704080F282806A
:1044A0004FF0000001F1C04101F0004170479EEA69
:1044B0000C0F0CEA131518BF95EA0C0F06D04FF03D
:1044C000000081EA030E0EF0004170BD00F01CF800
:1044D0008900013E00F007B800F009B84FEA430C2C
:1044E0005FEA5C5C08D081EA030100F05BB84FEA48
:1044F000410C5FEA5C5CF6D14FF000000149704767
:104500000000FF070000F87F0EF1020E2EF0030EF0
:104510005EF8046B364205D4012A43EB030515F51A
:10452000001F12D8012841EB010C1CF5001F0CD80C
:104530000ED14FEAD17C15F5001F0CEB4C0C0CF1A1
:10454000020C08BF4CEBD37C04E04FF0080C01E0F8
:104550004FEAD37C0CEB4C0526FA05F606F007066D
:10456000B6F1040C06D20EEB860CBDE870404CF0A0
:10457000010C6047DFE80CF0090B02024FF000412C
:104580004FF00000A1F5002170BD1946104601282A
:1045900051EB010418BFD4F5001484BF002001F0D2
:1045A000004170BD0808A0F500114FEA31017047C5
:1045B0004FF04070E1EE100A7047FCF727B800009A
:1045C00000000000000000000000000000000000EB
:1045D00000000000000000000000000000000000DB
:1045E00000000000000000000000000000000000CB
:1045F00080018001800180018001800180018001B3
:1046000080018001800180018001000000008001A4
:104610008001000000000000000000000000000019
:104620000000CC00CC00CC00CC00CC00CC000000C2
:10463000000000000000000000000000000000007A
:10464000000000000000000000000000000000006A
:1046500000000000000000000000600C600C600C16
:1046600030063006FE1FFE1F300638071803FE1FF7
:10467000FE1F180318038C018C018C010000000040
:104680008000E003F80F9C0E8C1C8C188C009800A6
:10469000F801E007800E801C8C188C189C18B80C50
:1046A000F00FE00380008000000000000000000028
:1046B000000000000E181B0C110C1106110611034E
:1046C00011039B018E01C038C06C604460443044CB
:1046D00030441844186C0C38000000000000000042
:1046E000E001F0033807180618063003F001F00067
:1046F000F8009C310E33061E061C061C063FFC7398
:10470000F021000000000000000000000000000098
:1047100000000C000C000C000C000C000C00000051
:104720000000000000000000000000000000000089
:104730000000000000000000000000000000000079
:10474000000200038001C000C00060006000300073
:1047500030003000300030003000300030006000A9
:104760006000C000C00080010003000200000000E3
:1047700020006000C00080018001000300030006EB
:1047800000060006000600060006000600060003FC
:10479000000380018001C0006000200000000000D4
:1047A00000000000000000000000C000C000D806AB
:1047B000F807E001300338070000000000000000A7
:1047C00000000000000000000000000000000000E9
:1047D0000000000000000000000080018001800156
:1047E00080018001FC3FFC3F80018001800180014D
:1047F0008001000000000000000000000000000038
:1048000000000000000000000000000000000000A8
:104810000000000000000000000000000000000098
:104820008001800100010001800000000000000004
:104830000000000000000000000000000000000078
:10484000000000000000E007E0070000000000009A
:104850000000000000000000000000000000000058
:104860000000000000000000000000000000000048
:104870000000000000000000000000000000000038
:10488000C000C000000000000000000000000000A8
:10489000000C000C000600060006000300030003E5
:1048A0008003800180018001C000C000C000600062
:1048B0006000000000000000000000000000000098
:1048C000E003F007380E180C0C180C180C180C1814
:1048D0000C180C180C180C180C18180C380EF007C3
:1048E000E0030000000000000000000000000000E5
:1048F00000018001C001F001980188018001800160
:10490000800180018001800180018001800180019F
:104910008001000000000000000000000000000016
:10492000E003F80F180C0C180C1800180018000CF5
:10493000000600038001C000600030001800FC1F6A
:10494000FC1F00000000000000000000000000004C
:10495000E001F807180E0C0C0C0C000C0006C0034C
:10496000C007000C001800180C180C18180CF807D9
:10497000E003000000000000000000000000000054
:10498000000C000E000F000F800DC00C600C600CBE
:10499000300C180C0C0CFC3FFC3F000C000C000C05
:1049A000000C0000000000000000000000000000FB
:1049B000F80FF80F180018000C00EC03FC071C0E91
:1049C000001C0018001800180C181C0C180EF80712
:1049D000E0030000000000000000000000000000F4
:1049E000C007F00F381C181818000C00CC03EC0F8F
:1049F0003C0E1C1C0C180C180C18181C380EF00758
:104A0000E0030000000000000000000000000000C3
:104A1000FC1FFC1F000C0006000600038003800141
:104A2000C001C000E0006000600070003000300095
:104A30003000000000000000000000000000000046
:104A4000E003F007380E180C180C180C3806F007A5
:104A5000F007180C0C180C180C180C18380CF80F60
:104A6000E003000000000000000000000000000063
:104A7000E003F007380E1C0C0C180C180C181C1C4A
:104A8000381EF81BE0190018000C000C1C0EF8076B
:104A9000F001000000000000000000000000000025
:104AA0000000000000000000000080018001000004
:104AB0000000000000000000000000000000800175
:104AC0008001000000000000000000000000000065
:104AD00000000000000000000000800180010000D4
:104AE0000000000000000000000000000000800145
:104AF00080010001000180000000000000000000B3
:104B00000000000000000000000000000000001095
:104B1000001C800FE003F8001800F800E003800F8D
:104B2000001C001000000000000000000000000059
:104B30000000000000000000000000000000F81F5E
:104B4000000000000000F81F00000000000000004E
:104B50000000000000000000000000000000000055
:104B6000000000000000000000000000000008003D
:104B70003800F001C007001F0018001FC007F00137
:104B800038000800000000000000000000000000E5
:104B9000E003F80F180C0C180C180018000C000695
:104BA00000038001C000C000C00000000000C00081
:104BB000C000000000000000000000000000000035
:104BC0000000E00718180420C229224A11440944B1
:104BD0000944094409221113E20C02400420181868
:104BE000E0070000000000000000000000000000DE
:104BF00080038003C006C006C006600C600C30183D
:104C000030183018F83FF83F1C700C600C6006C07C
:104C100006C00000000000000000000000000000CE
:104C2000FC03FC0F0C0C0C180C180C180C0CFC07DB
:104C3000FC0F0C180C300C300C300C300C18FC1F16
:104C4000FC07000000000000000000000000000061
:104C5000C007F01F38381C300C70066006000600D4
:104C6000060006000600060006600C701C30F01FEF
:104C7000E00700000000000000000000000000004D
:104C8000FE03FE0F060E0618061806300630063024
:104C9000063006300630063006180618060EFE0FDF
:104CA000FE03000000000000000000000000000003
:104CB000FC3FFC3F0C000C000C000C000C00FC1F27
:104CC000FC1F0C000C000C000C000C000C00FC3F46
:104CD000FC3F000000000000000000000000000099
:104CE000F83FF83F18001800180018001800F81FC7
:104CF000F81F1800180018001800180018001800F5
:104D0000180000000000000000000000000000008B
:104D1000E00FF83F3C780E6006E007C00300030098
:104D200003FE03FE03C007C006C00EC03CF0F83F00
:104D3000E00F000000000000000000000000000084
:104D40000C300C300C300C300C300C300C30FC3F84
:104D5000FC3F0C300C300C300C300C300C300C3074
:104D60000C30000000000000000000000000000007
:104D7000800180018001800180018001800180012B
:104D8000800180018001800180018001800180011B
:104D90008001000000000000000000000000000092
:104DA00000060006000600060006000600060006D3
:104DB0000006000600060006180618063807F0036D
:104DC000E001000000000000000000000000000002
:104DD00006300618060C060606038601C6006600A5
:104DE0007600DE008E0106030606060C0618063065
:104DF000066000000000000000000000000000004D
:104E000018001800180018001800180018001800E2
:104E10001800180018001800180018001800F81FD3
:104E2000F81F00000000000000000000000000006B
:104E30000EE01EF01EF01EF036D836D836D836D822
:104E400066CC66CC66CCC6C6C6C6C6C6C6C686C353
:104E500086C3000000000000000000000000000009
:104E60000C301C303C303C306C306C30CC30CC30B2
:104E70008C310C330C330C360C360C3C0C3C0C389F
:104E80000C300000000000000000000000000000E6
:104E9000E007F81F1C380E70066003C003C003C093
:104EA00003C003C003C003C006600E701C38F81FA7
:104EB000E00700000000000000000000000000000B
:104EC000FC0FFC1F0C380C300C300C300C300C1864
:104ED000FC1FFC070C000C000C000C000C000C006C
:104EE0000C000000000000000000000000000000B6
:104EF000E007F81F1C380E70066003E003C003C013
:104F000003C003C003C007E006630E3F1C3CF83F2C
:104F1000E0F700C0000000000000000000000000FA
:104F2000FE0FFE1F06380630063006300638FE1F1C
:104F3000FE0706030606060C06180618063006309D
:104F400006600000000000000000000000000000FB
:104F5000E003F80F1C0C0C180C180C001C00F803D4
:104F6000E00F001E0038063006300E301C1CF80F13
:104F7000E00700000000000000000000000000004A
:104F8000FE7FFE7F80018001800180018001800121
:104F90008001800180018001800180018001800109
:104FA0008001000000000000000000000000000080
:104FB0000C300C300C300C300C300C300C300C3011
:104FC0000C300C300C300C300C300C301818F81F32
:104FD000E0070000000000000000000000000000EA
:104FE00003600630063006300C180C180C18180C2C
:104FF000180C380E30063006700760036003C001DD
:10500000C0010000000000000000000000000000DF
:105010000360C361C361C36166336633663366335D
:10502000663366336C1B6C1B6C1B2C1A3C1E380ED3
:10503000380E00000000000000000000000000002A
:105040000FE00C7018303018700C600EC007800331
:105050008003C003E006700C301C18180C300E6082
:1050600007E0000000000000000000000000000059
:1050700003C006600C301C383818300C6006E0079E
:10508000C0038001800180018001800180018001D6
:10509000800100000000000000000000000000008F
:1050A000FC7FFC7F006000300018000C000600034D
:1050B0008001C0006000300018000C000600FE7F78
:1050C000FE7F000000000000000000000000000063
:1050D000E003E003600060006000600060006000CA
:1050E00060006000600060006000600060006000C0
:1050F0006000600060006000E003E003000000006A
:1051000030003000600060006000C000C000C000DF
:10511000C00180018001800100030003000300063C
:105120000006000000000000000000000000000079
:10513000E003E00300030003000300030003000397
:105140000003000300030003000300030003000347
:105150000003000300030003E003E003000000007D
:105160000000C001C0016003600360033006300628
:10517000180C180C000000000000000000000000E7
:10518000000000000000000000000000000000001F
:10519000000000000000000000000000000000000F
:1051A00000000000000000000000000000000000FF
:1051B000FFFFFFFF000000000000000000000000F3
:1051C0000C000C000C000C000C000C000000000097
:1051D00000000000000000000000000000000000CF
:1051E00000000000000000000000000000000000BF
:1051F00000000000000000000000F003F8071C0C95
:105200000C0C000FF00FF80C0C0C0C0C1C0FF80F12
:10521000F018000000000000000000000000000086
:1052200018001800180018001800D803F80F380CE0
:10523000181818181818181818181818380CF80F03
:10524000D803000000000000000000000000000083
:1052500000000000000000000000C003F007300E56
:10526000180C1800180018001800180C300EF00761
:10527000C00300000000000000000000000000006B
:1052800000180018001800180018C01BF01F301C70
:10529000181818181818181818181818301CF01F93
:1052A000C01B000000000000000000000000000023
:1052B00000000000000000000000C003F00F300CF0
:1052C0001818F81FF81F180018003818301CF00FB5
:1052D000C007000000000000000000000000000007
:1052E000800FC00FC000C000C000F007F007C00072
:1052F000C000C000C000C000C000C000C000C000AE
:10530000C0000000000000000000000000000000DD
:1053100000000000000000000000E00DF80F180E73
:105320000C0C0C0C0C0C0C0C0C0C0C0C180EF80FC0
:10533000E00D000C0C0C1C06F807F001000000004A
:1053400018001800180018001800D807F80F381CAB
:1053500018181818181818181818181818181818CD
:10536000181800000000000000000000000000000D
:10537000C000C000000000000000C000C000C0006D
:10538000C000C000C000C000C000C000C000C0001D
:10539000C00000000000000000000000000000004D
:1053A000C000C000000000000000C000C000C0003D
:1053B000C000C000C000C000C000C000C000C000ED
:1053C000C000C000C000C000F8007800000000006D
:1053D0000C000C000C000C000C000C0C0C060C0358
:1053E0008C01CC006C00FC009C018C030C030C06AF
:1053F0000C0C000000000000000000000000000095
:10540000C000C000C000C000C000C000C000C0009C
:10541000C000C000C000C000C000C000C000C0008C
:10542000C0000000000000000000000000000000BC
:10543000000000000000000000007C3CFF7EC7E38D
:1054400083C183C183C183C183C183C183C183C13C
:1054500083C1000000000000000000000000000008
:10546000000000000000000000009807F80F381C42
:1054700018181818181818181818181818181818AC
:1054800018180000000000000000000000000000EC
:1054900000000000000000000000C003F00F300C0E
:1054A000181818181818181818181818300CF00FA1
:1054B000C003000000000000000000000000000029
:1054C00000000000000000000000D803F80F380CB6
:1054D000181818181818181818181818380CF80F61
:1054E000D803180018001800180018000000000069
:1054F00000000000000000000000C01BF01F301C76
:10550000181818181818181818181818301CF01F20
:10551000C01B001800180018001800180000000038
:1055200000000000000000000000B007F003700061
:1055300030003000300030003000300030003000EB
:10554000300000000000000000000000000000002B
:1055500000000000000000000000E003F003380E2F
:10556000180C3800F003C007000C180C380EF007B8
:10557000E003000000000000000000000000000048
:1055800000008000C000C000C000F007F007C000AD
:10559000C000C000C000C000C000C000C000C00704
:1055A0008007000000000000000000000000000074
:1055B000000000000000000000001818181818185B
:1055C000181818181818181818181818381CF01F58
:1055D000E0190000000000000000000000000000D2
:1055E000000000000000000000000C18180C180C4F
:1055F000180C300630063006600360036003C001FB
:10560000C0010000000000000000000000000000D9
:1056100000000000000000000000C141C141C36162
:105620006363636363633636363636361C1C1C1C74
:105630001C1C000000000000000000000000000032
:10564000000000000000000000001C38381C300C76
:10565000600660036003600360036006300C381C62
:105660001C380000000000000000000000000000E6
:105670000000000000000000000018303018301852
:105680007018600C600CE00CC006C006800380033C
:10569000800380018001C001F00070000000000064
:1056A00000000000000000000000FC1FFC1F000CB8
:1056B000000600038001C000600030001800FC1FDD
:1056C000FC1F0000000000000000000000000000BF
:1056D00000038001C000C000C000C000C000C000C6
:1056E00060006000300060004000C000C000C000EA
:1056F000C000C000C00080010003000000000000E6
:105700008001800180018001800180018001800191
:105710008001800180018001800180018001800181
:105720008001800180018001800180010000000073
:105730006000C000C0018001800180018001800103
:1057400000030003000600030001800180018001C6
:10575000800180018001C0006000000000000000A6
:105760000000000000000000000000000000F01039
:10577000F81F080F000000000000000000000000FB
:105780000000000000000000000000000000000019
:1057900000000000000001020304060708090000E1
:1057A000000001020304000002400000000000A00D
:1057B0000000000005400000000000C800000000DC
:1057C0000C4000000000409C000000001940000058
:1057D0000020BCBE0000000034400000BFC91B8E8A
:1057E00000000004B5400000504BCFD06607E2CF68
:1057F000010000006C4100003E8251AADFEEA73498
:1058000001000000D9420000DCB5A0E23A301F9749
:10581000FFFFFFFFB4450000FD25A0C8E9A3C14F6D
:10582000FFFFFFFFFF3F00000000008000000000BE
:10583000FF3F0000000000800000000078580008D2
:10584000000000201C00000014020008945800080A
:105850001C0000204C080000300200081C00000062
:1058600043000000F8FFFFFF0C0000000E000000E6
:105870000F0000002E000000000000000000FFFFED
:105880000000000000000000100000000100000007
:045890000024F400FC
:04000005080001D915
:00000001FF
